{
  "contractName": "DyDxSoloMarginTest",
  "abi": [
    {
      "inputs": [],
      "stateMutability": "payable",
      "type": "constructor"
    },
    {
      "anonymous": false,
      "inputs": [
        {
          "indexed": false,
          "internalType": "string",
          "name": "message",
          "type": "string"
        },
        {
          "indexed": false,
          "internalType": "uint256",
          "name": "val",
          "type": "uint256"
        }
      ],
      "name": "Log",
      "type": "event"
    },
    {
      "anonymous": false,
      "inputs": [
        {
          "indexed": false,
          "internalType": "string",
          "name": "message",
          "type": "string"
        },
        {
          "indexed": false,
          "internalType": "bytes",
          "name": "val",
          "type": "bytes"
        }
      ],
      "name": "Log",
      "type": "event"
    },
    {
      "stateMutability": "payable",
      "type": "fallback"
    },
    {
      "inputs": [],
      "name": "DAI",
      "outputs": [
        {
          "internalType": "address",
          "name": "",
          "type": "address"
        }
      ],
      "stateMutability": "view",
      "type": "function"
    },
    {
      "inputs": [],
      "name": "SAI",
      "outputs": [
        {
          "internalType": "address",
          "name": "",
          "type": "address"
        }
      ],
      "stateMutability": "view",
      "type": "function"
    },
    {
      "inputs": [],
      "name": "USDC",
      "outputs": [
        {
          "internalType": "address",
          "name": "",
          "type": "address"
        }
      ],
      "stateMutability": "view",
      "type": "function"
    },
    {
      "inputs": [],
      "name": "WETH",
      "outputs": [
        {
          "internalType": "address",
          "name": "",
          "type": "address"
        }
      ],
      "stateMutability": "view",
      "type": "function"
    },
    {
      "inputs": [],
      "name": "flashUser",
      "outputs": [
        {
          "internalType": "address",
          "name": "",
          "type": "address"
        }
      ],
      "stateMutability": "view",
      "type": "function"
    },
    {
      "stateMutability": "payable",
      "type": "receive"
    },
    {
      "inputs": [
        {
          "internalType": "address",
          "name": "flashToken",
          "type": "address"
        },
        {
          "internalType": "uint256",
          "name": "flashAmount",
          "type": "uint256"
        },
        {
          "internalType": "address",
          "name": "arbToken",
          "type": "address"
        },
        {
          "internalType": "bytes",
          "name": "zrxData",
          "type": "bytes"
        },
        {
          "internalType": "bytes",
          "name": "inchData",
          "type": "bytes"
        }
      ],
      "name": "initiateFlashLoan",
      "outputs": [],
      "stateMutability": "payable",
      "type": "function"
    },
    {
      "inputs": [
        {
          "internalType": "address",
          "name": "sender",
          "type": "address"
        },
        {
          "components": [
            {
              "internalType": "address",
              "name": "owner",
              "type": "address"
            },
            {
              "internalType": "uint256",
              "name": "number",
              "type": "uint256"
            }
          ],
          "internalType": "struct Account.Info",
          "name": "account",
          "type": "tuple"
        },
        {
          "internalType": "bytes",
          "name": "data",
          "type": "bytes"
        }
      ],
      "name": "callFunction",
      "outputs": [],
      "stateMutability": "nonpayable",
      "type": "function"
    },
    {
      "inputs": [
        {
          "internalType": "address",
          "name": "_fromToken",
          "type": "address"
        },
        {
          "internalType": "address",
          "name": "_toToken",
          "type": "address"
        },
        {
          "internalType": "uint256",
          "name": "_fromAmount",
          "type": "uint256"
        },
        {
          "internalType": "bytes",
          "name": "_0xData",
          "type": "bytes"
        },
        {
          "internalType": "bytes",
          "name": "_1inchData",
          "type": "bytes"
        }
      ],
      "name": "trade",
      "outputs": [],
      "stateMutability": "payable",
      "type": "function"
    },
    {
      "inputs": [
        {
          "internalType": "address",
          "name": "_from",
          "type": "address"
        },
        {
          "internalType": "uint256",
          "name": "_amount",
          "type": "uint256"
        },
        {
          "internalType": "bytes",
          "name": "_callData",
          "type": "bytes"
        }
      ],
      "name": "zrxSwap",
      "outputs": [],
      "stateMutability": "payable",
      "type": "function"
    },
    {
      "inputs": [
        {
          "internalType": "address",
          "name": "_from",
          "type": "address"
        },
        {
          "internalType": "uint256",
          "name": "_amount",
          "type": "uint256"
        },
        {
          "internalType": "bytes",
          "name": "_callData",
          "type": "bytes"
        }
      ],
      "name": "inchSwap",
      "outputs": [],
      "stateMutability": "payable",
      "type": "function"
    },
    {
      "inputs": [],
      "name": "getWeth",
      "outputs": [],
      "stateMutability": "payable",
      "type": "function"
    },
    {
      "inputs": [
        {
          "internalType": "uint256",
          "name": "_amount",
          "type": "uint256"
        }
      ],
      "name": "approveWeth",
      "outputs": [],
      "stateMutability": "nonpayable",
      "type": "function"
    },
    {
      "inputs": [
        {
          "internalType": "address",
          "name": "_tokenAddress",
          "type": "address"
        }
      ],
      "name": "withdrawToken",
      "outputs": [],
      "stateMutability": "nonpayable",
      "type": "function"
    },
    {
      "inputs": [],
      "name": "withdrawEther",
      "outputs": [],
      "stateMutability": "nonpayable",
      "type": "function"
    },
    {
      "inputs": [
        {
          "internalType": "address payable",
          "name": "_newOwner",
          "type": "address"
        }
      ],
      "name": "setOwner",
      "outputs": [],
      "stateMutability": "nonpayable",
      "type": "function"
    }
  ],
  "bytecode": "0x60806040527311111112542d85b3ef69ae05771c2dccff4faa26600260006101000a81548173ffffffffffffffffffffffffffffffffffffffff021916908373ffffffffffffffffffffffffffffffffffffffff1602179055507361935cbdd02287b511119ddb11aeb42f1593b7ef600360006101000a81548173ffffffffffffffffffffffffffffffffffffffff021916908373ffffffffffffffffffffffffffffffffffffffff1602179055507395e6f48254609a6ee006f7d493c8e5fb97094cef600460006101000a81548173ffffffffffffffffffffffffffffffffffffffff021916908373ffffffffffffffffffffffffffffffffffffffff16021790555073a26e80e7dea86279c6d778d702cc413e6cffa777600560006101000a81548173ffffffffffffffffffffffffffffffffffffffff021916908373ffffffffffffffffffffffffffffffffffffffff16021790555073c02aaa39b223fe8d0a0e5c4f27ead9083c756cc2600660006101000a81548173ffffffffffffffffffffffffffffffffffffffff021916908373ffffffffffffffffffffffffffffffffffffffff1602179055507389d24a6b4ccb1b6faa2625fe562bdd9a23260359600760006101000a81548173ffffffffffffffffffffffffffffffffffffffff021916908373ffffffffffffffffffffffffffffffffffffffff16021790555073a0b86991c6218b36c1d19d4a2e9eb0ce3606eb48600860006101000a81548173ffffffffffffffffffffffffffffffffffffffff021916908373ffffffffffffffffffffffffffffffffffffffff160217905550736b175474e89094c44da98b954eedeac495271d0f600960006101000a81548173ffffffffffffffffffffffffffffffffffffffff021916908373ffffffffffffffffffffffffffffffffffffffff160217905550620002bd346200031560201b60201c565b620002ce34620003ee60201b60201c565b33600160006101000a81548173ffffffffffffffffffffffffffffffffffffffff021916908373ffffffffffffffffffffffffffffffffffffffff16021790555062000699565b6000600660009054906101000a900473ffffffffffffffffffffffffffffffffffffffff1673ffffffffffffffffffffffffffffffffffffffff16826040516200035f9062000582565b60006040518083038185875af1925050503d80600081146200039e576040519150601f19603f3d011682016040523d82523d6000602084013e620003a3565b606091505b5050905080620003ea576040517f08c379a0000000000000000000000000000000000000000000000000000000008152600401620003e190620005c6565b60405180910390fd5b5050565b600660009054906101000a900473ffffffffffffffffffffffffffffffffffffffff1673ffffffffffffffffffffffffffffffffffffffff1663095ea7b3600560009054906101000a900473ffffffffffffffffffffffffffffffffffffffff16836040518363ffffffff1660e01b81526004016200046f92919062000599565b602060405180830381600087803b1580156200048a57600080fd5b505af11580156200049f573d6000803e3d6000fd5b505050506040513d601f19601f82011682018060405250810190620004c59190620004e0565b5050565b600081519050620004da816200067f565b92915050565b600060208284031215620004f957620004f86200064e565b5b60006200050984828501620004c9565b91505092915050565b6200051d8162000604565b82525050565b600062000532601283620005f3565b91506200053f8262000653565b602082019050919050565b600062000559600083620005e8565b915062000566826200067c565b600082019050919050565b6200057c8162000644565b82525050565b60006200058f826200054a565b9150819050919050565b6000604082019050620005b0600083018562000512565b620005bf602083018462000571565b9392505050565b60006020820190508181036000830152620005e18162000523565b9050919050565b600081905092915050565b600082825260208201905092915050565b6000620006118262000624565b9050919050565b60008115159050919050565b600073ffffffffffffffffffffffffffffffffffffffff82169050919050565b6000819050919050565b600080fd5b7f6661696c656420746f2067657420776574680000000000000000000000000000600082015250565b50565b6200068a8162000618565b81146200069657600080fd5b50565b613d3a80620006a96000396000f3fe6080604052600436106100ec5760003560e01c8063ad5c46481161008a578063df1e664611610059578063df1e664614610266578063e0bab4c41461028f578063f115b7be146102ba578063f9d5bbfc146102d6576100f3565b8063ad5c4648146101e7578063b622cc4514610212578063c8c61a791461022e578063cb6ac7581461024a576100f3565b80637362377b116100c65780637362377b14610153578063894760691461016a57806389a30271146101935780638b418713146101be576100f3565b8063107c279f146100f557806313af4035146100ff5780634b3fb7f814610128576100f3565b366100f357005b005b6100fd610301565b005b34801561010b57600080fd5b5061012660048036038101906101219190612695565b61039c565b005b34801561013457600080fd5b5061013d610470565b60405161014a91906130ae565b60405180910390f35b34801561015f57600080fd5b50610168610496565b005b34801561017657600080fd5b50610191600480360381019061018c919061263b565b6105b4565b005b34801561019f57600080fd5b506101a8610785565b6040516101b591906130ae565b60405180910390f35b3480156101ca57600080fd5b506101e560048036038101906101e0919061284f565b6107ab565b005b3480156101f357600080fd5b506101fc610bff565b60405161020991906130ae565b60405180910390f35b61022c600480360381019061022791906128be565b610c25565b005b6102486004803603810190610243919061297a565b610fa0565b005b610264600480360381019061025f919061297a565b611040565b005b34801561027257600080fd5b5061028d60048036038101906102889190612a16565b6110e0565b005b34801561029b57600080fd5b506102a461117c565b6040516102b191906130ae565b60405180910390f35b6102d460048036038101906102cf919061279c565b6111a2565b005b3480156102e257600080fd5b506102eb611246565b6040516102f891906130ae565b60405180910390f35b600160009054906101000a900473ffffffffffffffffffffffffffffffffffffffff1673ffffffffffffffffffffffffffffffffffffffff163373ffffffffffffffffffffffffffffffffffffffff1614610391576040517f08c379a000000000000000000000000000000000000000000000000000000000815260040161038890613231565b60405180910390fd5b61039a3461126a565b565b600160009054906101000a900473ffffffffffffffffffffffffffffffffffffffff1673ffffffffffffffffffffffffffffffffffffffff163373ffffffffffffffffffffffffffffffffffffffff161461042c576040517f08c379a000000000000000000000000000000000000000000000000000000000815260040161042390613231565b60405180910390fd5b80600160006101000a81548173ffffffffffffffffffffffffffffffffffffffff021916908373ffffffffffffffffffffffffffffffffffffffff16021790555050565b600760009054906101000a900473ffffffffffffffffffffffffffffffffffffffff1681565b600160009054906101000a900473ffffffffffffffffffffffffffffffffffffffff1673ffffffffffffffffffffffffffffffffffffffff163373ffffffffffffffffffffffffffffffffffffffff1614610526576040517f08c379a000000000000000000000000000000000000000000000000000000000815260040161051d90613231565b60405180910390fd5b600030905060008173ffffffffffffffffffffffffffffffffffffffff16319050600160009054906101000a900473ffffffffffffffffffffffffffffffffffffffff1673ffffffffffffffffffffffffffffffffffffffff166108fc829081150290604051600060405180830381858888f193505050501580156105af573d6000803e3d6000fd5b505050565b600160009054906101000a900473ffffffffffffffffffffffffffffffffffffffff1673ffffffffffffffffffffffffffffffffffffffff163373ffffffffffffffffffffffffffffffffffffffff1614610644576040517f08c379a000000000000000000000000000000000000000000000000000000000815260040161063b90613231565b60405180910390fd5b60008173ffffffffffffffffffffffffffffffffffffffff166370a08231306040518263ffffffff1660e01b815260040161067f91906130ae565b60206040518083038186803b15801561069757600080fd5b505afa1580156106ab573d6000803e3d6000fd5b505050506040513d601f19601f820116820180604052508101906106cf9190612a43565b90508173ffffffffffffffffffffffffffffffffffffffff1663a9059cbb600160009054906101000a900473ffffffffffffffffffffffffffffffffffffffff16836040518363ffffffff1660e01b815260040161072e9291906130c9565b602060405180830381600087803b15801561074857600080fd5b505af115801561075c573d6000803e3d6000fd5b505050506040513d601f19601f8201168201806040525081019061078091906129e9565b505050565b600860009054906101000a900473ffffffffffffffffffffffffffffffffffffffff1681565b731e0447b19bb6ecfdae1e4ae1694b0c3659614e4e73ffffffffffffffffffffffffffffffffffffffff163373ffffffffffffffffffffffffffffffffffffffff161461082d576040517f08c379a0000000000000000000000000000000000000000000000000000000008152600401610824906132ad565b60405180910390fd5b3073ffffffffffffffffffffffffffffffffffffffff168373ffffffffffffffffffffffffffffffffffffffff161461089b576040517f08c379a00000000000000000000000000000000000000000000000000000000081526004016108929061331b565b60405180910390fd5b6000806000806000806000878060200190518101906108ba91906126c2565b965096509650965096509650965060008773ffffffffffffffffffffffffffffffffffffffff166370a08231306040518263ffffffff1660e01b815260040161090391906130ae565b60206040518083038186803b15801561091b57600080fd5b505afa15801561092f573d6000803e3d6000fd5b505050506040513d601f19601f820116820180604052508101906109539190612a43565b90508686826109629190613699565b146109a2576040517f08c379a0000000000000000000000000000000000000000000000000000000008152600401610999906133e5565b60405180910390fd5b60008873ffffffffffffffffffffffffffffffffffffffff166370a08231306040518263ffffffff1660e01b81526004016109dd91906130ae565b60206040518083038186803b1580156109f557600080fd5b505afa158015610a09573d6000803e3d6000fd5b505050506040513d601f19601f82011682018060405250810190610a2d9190612a43565b9050610a3c89868a878761133c565b60008973ffffffffffffffffffffffffffffffffffffffff166370a08231306040518263ffffffff1660e01b8152600401610a7791906130ae565b60206040518083038186803b158015610a8f57600080fd5b505afa158015610aa3573d6000803e3d6000fd5b505050506040513d601f19601f82011682018060405250810190610ac79190612a43565b90508c6000806101000a81548173ffffffffffffffffffffffffffffffffffffffff021916908373ffffffffffffffffffffffffffffffffffffffff1602179055507fdd970dd9b5bfe707922155b058a407655cb18288b807e2216442bca8ad83d6b582604051610b389190613369565b60405180910390a17fdd970dd9b5bfe707922155b058a407655cb18288b807e2216442bca8ad83d6b581604051610b6f9190613461565b60405180910390a17fdd970dd9b5bfe707922155b058a407655cb18288b807e2216442bca8ad83d6b587604051610ba69190613405565b60405180910390a17fdd970dd9b5bfe707922155b058a407655cb18288b807e2216442bca8ad83d6b58783610bdb9190613699565b604051610be891906133b7565b60405180910390a150505050505050505050505050565b600660009054906101000a900473ffffffffffffffffffffffffffffffffffffffff1681565b6000731e0447b19bb6ecfdae1e4ae1694b0c3659614e4e90506000610c5e731e0447b19bb6ecfdae1e4ae1694b0c3659614e4e8a6114ef565b90506000610c6b896116a7565b90508973ffffffffffffffffffffffffffffffffffffffff1663095ea7b3731e0447b19bb6ecfdae1e4ae1694b0c3659614e4e836040518363ffffffff1660e01b8152600401610cbc92919061311b565b602060405180830381600087803b158015610cd657600080fd5b505af1158015610cea573d6000803e3d6000fd5b505050506040513d601f19601f82011682018060405250810190610d0e91906129e9565b5060008a73ffffffffffffffffffffffffffffffffffffffff166370a08231306040518263ffffffff1660e01b8152600401610d4a91906130ae565b60206040518083038186803b158015610d6257600080fd5b505afa158015610d76573d6000803e3d6000fd5b505050506040513d601f19601f82011682018060405250810190610d9a9190612a43565b905060008b8b83858d8d8d8d8d604051602001610dbf99989796959493929190613144565b60405160208183030381529060405290506000600367ffffffffffffffff811115610ded57610dec613927565b5b604051908082528060200260200182016040528015610e2657816020015b610e13612331565b815260200190600190039081610e0b5790505b509050610e33858d6116c4565b81600081518110610e4757610e466138f8565b5b6020026020010181905250610e5b82611792565b81600181518110610e6f57610e6e6138f8565b5b6020026020010181905250610e848585611851565b81600281518110610e9857610e976138f8565b5b60200260200101819052506000600167ffffffffffffffff811115610ec057610ebf613927565b5b604051908082528060200260200182016040528015610ef957816020015b610ee66123a4565b815260200190600190039081610ede5790505b509050610f0461191f565b81600081518110610f1857610f176138f8565b5b60200260200101819052508673ffffffffffffffffffffffffffffffffffffffff1663a67a6a4582846040518363ffffffff1660e01b8152600401610f5e9291906131c5565b600060405180830381600087803b158015610f7857600080fd5b505af1158015610f8c573d6000803e3d6000fd5b505050505050505050505050505050505050565b600160009054906101000a900473ffffffffffffffffffffffffffffffffffffffff1673ffffffffffffffffffffffffffffffffffffffff163373ffffffffffffffffffffffffffffffffffffffff1614611030576040517f08c379a000000000000000000000000000000000000000000000000000000000815260040161102790613231565b60405180910390fd5b61103b838383611958565b505050565b600160009054906101000a900473ffffffffffffffffffffffffffffffffffffffff1673ffffffffffffffffffffffffffffffffffffffff163373ffffffffffffffffffffffffffffffffffffffff16146110d0576040517f08c379a00000000000000000000000000000000000000000000000000000000081526004016110c790613231565b60405180910390fd5b6110db838383611dd7565b505050565b600160009054906101000a900473ffffffffffffffffffffffffffffffffffffffff1673ffffffffffffffffffffffffffffffffffffffff163373ffffffffffffffffffffffffffffffffffffffff1614611170576040517f08c379a000000000000000000000000000000000000000000000000000000000815260040161116790613231565b60405180910390fd5b61117981612246565b50565b600960009054906101000a900473ffffffffffffffffffffffffffffffffffffffff1681565b600160009054906101000a900473ffffffffffffffffffffffffffffffffffffffff1673ffffffffffffffffffffffffffffffffffffffff163373ffffffffffffffffffffffffffffffffffffffff1614611232576040517f08c379a000000000000000000000000000000000000000000000000000000000815260040161122990613231565b60405180910390fd5b61123f858585858561133c565b5050505050565b60008054906101000a900473ffffffffffffffffffffffffffffffffffffffff1681565b6000600660009054906101000a900473ffffffffffffffffffffffffffffffffffffffff1673ffffffffffffffffffffffffffffffffffffffff16826040516112b290613099565b60006040518083038185875af1925050503d80600081146112ef576040519150601f19603f3d011682016040523d82523d6000602084013e6112f4565b606091505b5050905080611338576040517f08c379a000000000000000000000000000000000000000000000000000000000815260040161132f906132fb565b60405180910390fd5b5050565b600030905060008573ffffffffffffffffffffffffffffffffffffffff166370a08231836040518263ffffffff1660e01b815260040161137c91906130ae565b60206040518083038186803b15801561139457600080fd5b505afa1580156113a8573d6000803e3d6000fd5b505050506040513d601f19601f820116820180604052508101906113cc9190612a43565b90507fdd970dd9b5bfe707922155b058a407655cb18288b807e2216442bca8ad83d6b5816040516113fd919061327f565b60405180910390a1611410878686611958565b60008673ffffffffffffffffffffffffffffffffffffffff166370a08231846040518263ffffffff1660e01b815260040161144b91906130ae565b60206040518083038186803b15801561146357600080fd5b505afa158015611477573d6000803e3d6000fd5b505050506040513d601f19601f8201168201806040525081019061149b9190612a43565b90507fdd970dd9b5bfe707922155b058a407655cb18288b807e2216442bca8ad83d6b5816040516114cc9190613433565b60405180910390a1600082826114e29190613699565b9050505050505050505050565b60008083905060008173ffffffffffffffffffffffffffffffffffffffff1663295c39a56040518163ffffffff1660e01b815260040160206040518083038186803b15801561153d57600080fd5b505afa158015611551573d6000803e3d6000fd5b505050506040513d601f19601f820116820180604052508101906115759190612a43565b9050600080600090505b82811015611665578373ffffffffffffffffffffffffffffffffffffffff1663062bd3e9826040518263ffffffff1660e01b81526004016115c091906134bd565b60206040518083038186803b1580156115d857600080fd5b505afa1580156115ec573d6000803e3d6000fd5b505050506040513d601f19601f820116820180604052508101906116109190612668565b91508573ffffffffffffffffffffffffffffffffffffffff168273ffffffffffffffffffffffffffffffffffffffff16141561165257809450505050506116a1565b808061165d90613851565b91505061157f565b506040517f08c379a000000000000000000000000000000000000000000000000000000000815260040161169890613397565b60405180910390fd5b92915050565b60006116bd60028361231b90919063ffffffff16565b9050919050565b6116cc612331565b604051806101000160405280600160088111156116ec576116eb6138c9565b5b8152602001600081526020016040518060800160405280600015158152602001600060018111156117205761171f6138c9565b5b815260200160006001811115611739576117386138c9565b5b8152602001858152508152602001848152602001600081526020013073ffffffffffffffffffffffffffffffffffffffff1681526020016000815260200160405180602001604052806000815250815250905092915050565b61179a612331565b6040518061010001604052806008808111156117b9576117b86138c9565b5b8152602001600081526020016040518060800160405280600015158152602001600060018111156117ed576117ec6138c9565b5b815260200160006001811115611806576118056138c9565b5b81526020016000815250815260200160008152602001600081526020013073ffffffffffffffffffffffffffffffffffffffff16815260200160008152602001838152509050919050565b611859612331565b60405180610100016040528060006008811115611879576118786138c9565b5b8152602001600081526020016040518060800160405280600115158152602001600060018111156118ad576118ac6138c9565b5b8152602001600060018111156118c6576118c56138c9565b5b8152602001858152508152602001848152602001600081526020013073ffffffffffffffffffffffffffffffffffffffff1681526020016000815260200160405180602001604052806000815250815250905092915050565b6119276123a4565b60405180604001604052803073ffffffffffffffffffffffffffffffffffffffff1681526020016001815250905090565b600083905060008173ffffffffffffffffffffffffffffffffffffffff166370a08231306040518263ffffffff1660e01b815260040161199891906130ae565b60206040518083038186803b1580156119b057600080fd5b505afa1580156119c4573d6000803e3d6000fd5b505050506040513d601f19601f820116820180604052508101906119e89190612a43565b90507fdd970dd9b5bfe707922155b058a407655cb18288b807e2216442bca8ad83d6b581604051611a19919061333b565b60405180910390a160008273ffffffffffffffffffffffffffffffffffffffff1663095ea7b3600460009054906101000a900473ffffffffffffffffffffffffffffffffffffffff16876040518363ffffffff1660e01b8152600401611a8092919061311b565b602060405180830381600087803b158015611a9a57600080fd5b505af1158015611aae573d6000803e3d6000fd5b505050506040513d601f19601f82011682018060405250810190611ad291906129e9565b90506000600290508115611ae95760019050611aee565b600090505b7fdd970dd9b5bfe707922155b058a407655cb18288b807e2216442bca8ad83d6b581604051611b1d919061348f565b60405180910390a160006060600360009054906101000a900473ffffffffffffffffffffffffffffffffffffffff1673ffffffffffffffffffffffffffffffffffffffff16620111703a611b71919061363f565b620493e09089604051611b849190613082565b600060405180830381858888f193505050503d8060008114611bc2576040519150601f19603f3d011682016040523d82523d6000602084013e611bc7565b606091505b508092508193505050600292508115611be35760019250611be8565b600092505b7fdd970dd9b5bfe707922155b058a407655cb18288b807e2216442bca8ad83d6b583604051611c1791906132cd565b60405180910390a17f381e6feca73f11fec6ca464f9d2a06ae1bb0ee33a55355e128d2d3aca53cc5f481604051611c4e91906131fc565b60405180910390a160008673ffffffffffffffffffffffffffffffffffffffff166370a08231306040518263ffffffff1660e01b8152600401611c9191906130ae565b60206040518083038186803b158015611ca957600080fd5b505afa158015611cbd573d6000803e3d6000fd5b505050506040513d601f19601f82011682018060405250810190611ce19190612a43565b90507fdd970dd9b5bfe707922155b058a407655cb18288b807e2216442bca8ad83d6b581604051611d129190613251565b60405180910390a18673ffffffffffffffffffffffffffffffffffffffff1663095ea7b3600460009054906101000a900473ffffffffffffffffffffffffffffffffffffffff1660006040518363ffffffff1660e01b8152600401611d789291906130f2565b602060405180830381600087803b158015611d9257600080fd5b505af1158015611da6573d6000803e3d6000fd5b505050506040513d601f19601f82011682018060405250810190611dca91906129e9565b5050505050505050505050565b600083905060008173ffffffffffffffffffffffffffffffffffffffff166370a08231306040518263ffffffff1660e01b8152600401611e1791906130ae565b60206040518083038186803b158015611e2f57600080fd5b505afa158015611e43573d6000803e3d6000fd5b505050506040513d601f19601f82011682018060405250810190611e679190612a43565b90507fdd970dd9b5bfe707922155b058a407655cb18288b807e2216442bca8ad83d6b581604051611e98919061333b565b60405180910390a160008273ffffffffffffffffffffffffffffffffffffffff1663095ea7b3600260009054906101000a900473ffffffffffffffffffffffffffffffffffffffff16876040518363ffffffff1660e01b8152600401611eff92919061311b565b602060405180830381600087803b158015611f1957600080fd5b505af1158015611f2d573d6000803e3d6000fd5b505050506040513d601f19601f82011682018060405250810190611f5191906129e9565b90506000600290508115611f685760019050611f6d565b600090505b7fdd970dd9b5bfe707922155b058a407655cb18288b807e2216442bca8ad83d6b581604051611f9c919061348f565b60405180910390a160006060600260009054906101000a900473ffffffffffffffffffffffffffffffffffffffff1673ffffffffffffffffffffffffffffffffffffffff16620f424088604051611ff39190613082565b60006040518083038160008787f1925050503d8060008114612031576040519150601f19603f3d011682016040523d82523d6000602084013e612036565b606091505b5080925081935050506002925081156120525760019250612057565b600092505b7fdd970dd9b5bfe707922155b058a407655cb18288b807e2216442bca8ad83d6b58360405161208691906132cd565b60405180910390a17f381e6feca73f11fec6ca464f9d2a06ae1bb0ee33a55355e128d2d3aca53cc5f4816040516120bd91906131fc565b60405180910390a160008673ffffffffffffffffffffffffffffffffffffffff166370a08231306040518263ffffffff1660e01b815260040161210091906130ae565b60206040518083038186803b15801561211857600080fd5b505afa15801561212c573d6000803e3d6000fd5b505050506040513d601f19601f820116820180604052508101906121509190612a43565b90507fdd970dd9b5bfe707922155b058a407655cb18288b807e2216442bca8ad83d6b5816040516121819190613251565b60405180910390a18673ffffffffffffffffffffffffffffffffffffffff1663095ea7b3600260009054906101000a900473ffffffffffffffffffffffffffffffffffffffff1660006040518363ffffffff1660e01b81526004016121e79291906130f2565b602060405180830381600087803b15801561220157600080fd5b505af1158015612215573d6000803e3d6000fd5b505050506040513d601f19601f8201168201806040525081019061223991906129e9565b5050505050505050505050565b600660009054906101000a900473ffffffffffffffffffffffffffffffffffffffff1673ffffffffffffffffffffffffffffffffffffffff1663095ea7b3600560009054906101000a900473ffffffffffffffffffffffffffffffffffffffff16836040518363ffffffff1660e01b81526004016122c592919061311b565b602060405180830381600087803b1580156122df57600080fd5b505af11580156122f3573d6000803e3d6000fd5b505050506040513d601f19601f8201168201806040525081019061231791906129e9565b5050565b6000818361232991906135e9565b905092915050565b60405180610100016040528060006008811115612351576123506138c9565b5b8152602001600081526020016123656123d4565b81526020016000815260200160008152602001600073ffffffffffffffffffffffffffffffffffffffff16815260200160008152602001606081525090565b6040518060400160405280600073ffffffffffffffffffffffffffffffffffffffff168152602001600081525090565b6040518060800160405280600015158152602001600060018111156123fc576123fb6138c9565b5b815260200160006001811115612415576124146138c9565b5b8152602001600081525090565b6000612435612430846134fd565b6134d8565b9050828152602081018484840111156124515761245061396a565b5b61245c8482856137de565b509392505050565b6000612477612472846134fd565b6134d8565b9050828152602081018484840111156124935761249261396a565b5b61249e8482856137ed565b509392505050565b6000813590506124b581613ca8565b92915050565b6000815190506124ca81613ca8565b92915050565b6000813590506124df81613cbf565b92915050565b6000815190506124f481613cbf565b92915050565b60008151905061250981613cd6565b92915050565b60008083601f8401126125255761252461395b565b5b8235905067ffffffffffffffff81111561254257612541613956565b5b60208301915083600182028301111561255e5761255d613965565b5b9250929050565b600082601f83011261257a5761257961395b565b5b813561258a848260208601612422565b91505092915050565b600082601f8301126125a8576125a761395b565b5b81516125b8848260208601612464565b91505092915050565b6000604082840312156125d7576125d6613960565b5b6125e160406134d8565b905060006125f1848285016124a6565b600083015250602061260584828501612611565b60208301525092915050565b60008135905061262081613ced565b92915050565b60008151905061263581613ced565b92915050565b60006020828403121561265157612650613974565b5b600061265f848285016124a6565b91505092915050565b60006020828403121561267e5761267d613974565b5b600061268c848285016124bb565b91505092915050565b6000602082840312156126ab576126aa613974565b5b60006126b9848285016124d0565b91505092915050565b600080600080600080600060e0888a0312156126e1576126e0613974565b5b60006126ef8a828b016124e5565b97505060206127008a828b01612626565b96505060406127118a828b01612626565b95505060606127228a828b01612626565b94505060806127338a828b016124e5565b93505060a088015167ffffffffffffffff8111156127545761275361396f565b5b6127608a828b01612593565b92505060c088015167ffffffffffffffff8111156127815761278061396f565b5b61278d8a828b01612593565b91505092959891949750929550565b600080600080600060a086880312156127b8576127b7613974565b5b60006127c6888289016124a6565b95505060206127d7888289016124a6565b94505060406127e888828901612611565b935050606086013567ffffffffffffffff8111156128095761280861396f565b5b61281588828901612565565b925050608086013567ffffffffffffffff8111156128365761283561396f565b5b61284288828901612565565b9150509295509295909350565b60008060006080848603121561286857612867613974565b5b6000612876868287016124a6565b9350506020612887868287016125c1565b925050606084013567ffffffffffffffff8111156128a8576128a761396f565b5b6128b486828701612565565b9150509250925092565b600080600080600080600060a0888a0312156128dd576128dc613974565b5b60006128eb8a828b016124a6565b97505060206128fc8a828b01612611565b965050604061290d8a828b016124a6565b955050606088013567ffffffffffffffff81111561292e5761292d61396f565b5b61293a8a828b0161250f565b9450945050608088013567ffffffffffffffff81111561295d5761295c61396f565b5b6129698a828b0161250f565b925092505092959891949750929550565b60008060006060848603121561299357612992613974565b5b60006129a1868287016124a6565b93505060206129b286828701612611565b925050604084013567ffffffffffffffff8111156129d3576129d261396f565b5b6129df86828701612565565b9150509250925092565b6000602082840312156129ff576129fe613974565b5b6000612a0d848285016124fa565b91505092915050565b600060208284031215612a2c57612a2b613974565b5b6000612a3a84828501612611565b91505092915050565b600060208284031215612a5957612a58613974565b5b6000612a6784828501612626565b91505092915050565b6000612a7c8383612f2d565b905092915050565b6000612a908383613035565b60408301905092915050565b612aa581613760565b82525050565b612ab4816136cd565b82525050565b612ac3816136cd565b82525050565b6000612ad48261354e565b612ade8185613589565b935083602082028501612af08561352e565b8060005b85811015612b2c5784840389528151612b0d8582612a70565b9450612b188361356f565b925060208a01995050600181019050612af4565b50829750879550505050505092915050565b6000612b4982613559565b612b53818561359a565b9350612b5e8361353e565b8060005b83811015612b8f578151612b768882612a84565b9750612b818361357c565b925050600181019050612b62565b5085935050505092915050565b612ba5816136f1565b82525050565b6000612bb783856135bc565b9350612bc48385846137de565b612bcd83613979565b840190509392505050565b6000612be382613564565b612bed81856135ab565b9350612bfd8185602086016137ed565b612c0681613979565b840191505092915050565b6000612c1c82613564565b612c2681856135bc565b9350612c368185602086016137ed565b612c3f81613979565b840191505092915050565b6000612c5582613564565b612c5f81856135cd565b9350612c6f8185602086016137ed565b80840191505092915050565b612c8481613772565b82525050565b612c9381613784565b82525050565b612ca281613796565b82525050565b612cb1816137a8565b82525050565b6000612cc46006836135d8565b9150612ccf8261398a565b602082019050919050565b6000612ce76018836135d8565b9150612cf2826139b3565b602082019050919050565b6000612d0a600c836135d8565b9150612d15826139dc565b602082019050919050565b6000612d2d6014836135d8565b9150612d3882613a05565b602082019050919050565b6000612d506005836135d8565b9150612d5b82613a2e565b602082019050919050565b6000612d736007836135d8565b9150612d7e82613a57565b602082019050919050565b6000612d966012836135d8565b9150612da182613a80565b602082019050919050565b6000612db9600e836135d8565b9150612dc482613aa9565b602082019050919050565b6000612ddc600d836135d8565b9150612de782613ad2565b602082019050919050565b6000612dff6008836135d8565b9150612e0a82613afb565b602082019050919050565b6000612e226024836135d8565b9150612e2d82613b24565b604082019050919050565b6000612e45600b836135d8565b9150612e5082613b73565b602082019050919050565b6000612e68601d836135d8565b9150612e7382613b9c565b602082019050919050565b6000612e8b6000836135cd565b9150612e9682613bc5565b600082019050919050565b6000612eae6005836135d8565b9150612eb982613bc8565b602082019050919050565b6000612ed16013836135d8565b9150612edc82613bf1565b602082019050919050565b6000612ef46006836135d8565b9150612eff82613c1a565b602082019050919050565b6000612f176008836135d8565b9150612f2282613c43565b602082019050919050565b600061016083016000830151612f466000860182612c7b565b506020830151612f596020860182613064565b506040830151612f6c6040860182612fe0565b506060830151612f7f60c0860182613064565b506080830151612f9260e0860182613064565b5060a0830151612fa6610100860182612aab565b5060c0830151612fba610120860182613064565b5060e0830151848203610140860152612fd38282612bd8565b9150508091505092915050565b608082016000820151612ff66000850182612b9c565b5060208201516130096020850182612c8a565b50604082015161301c6040850182612c99565b50606082015161302f6060850182613064565b50505050565b60408201600082015161304b6000850182612aab565b50602082015161305e6020850182613064565b50505050565b61306d81613756565b82525050565b61307c81613756565b82525050565b600061308e8284612c4a565b915081905092915050565b60006130a482612e7e565b9150819050919050565b60006020820190506130c36000830184612aba565b92915050565b60006040820190506130de6000830185612a9c565b6130eb6020830184613073565b9392505050565b60006040820190506131076000830185612aba565b6131146020830184612ca8565b9392505050565b60006040820190506131306000830185612aba565b61313d6020830184613073565b9392505050565b600060e082019050613159600083018c612aba565b613166602083018b613073565b613173604083018a613073565b6131806060830189613073565b61318d6080830188612aba565b81810360a08301526131a0818688612bab565b905081810360c08301526131b5818486612bab565b90509a9950505050505050505050565b600060408201905081810360008301526131df8185612b3e565b905081810360208301526131f38184612ac9565b90509392505050565b6000604082019050818103600083015261321581612cb7565b905081810360208301526132298184612c11565b905092915050565b6000602082019050818103600083015261324a81612cda565b9050919050565b6000604082019050818103600083015261326a81612cfd565b90506132796020830184613073565b92915050565b6000604082019050818103600083015261329881612d20565b90506132a76020830184613073565b92915050565b600060208201905081810360008301526132c681612d43565b9050919050565b600060408201905081810360008301526132e681612d66565b90506132f56020830184613073565b92915050565b6000602082019050818103600083015261331481612d89565b9050919050565b6000602082019050818103600083015261333481612dac565b9050919050565b6000604082019050818103600083015261335481612dcf565b90506133636020830184613073565b92915050565b6000604082019050818103600083015261338281612df2565b90506133916020830184613073565b92915050565b600060208201905081810360008301526133b081612e15565b9050919050565b600060408201905081810360008301526133d081612e38565b90506133df6020830184613073565b92915050565b600060208201905081810360008301526133fe81612e5b565b9050919050565b6000604082019050818103600083015261341e81612ea1565b905061342d6020830184613073565b92915050565b6000604082019050818103600083015261344c81612ec4565b905061345b6020830184613073565b92915050565b6000604082019050818103600083015261347a81612ee7565b90506134896020830184613073565b92915050565b600060408201905081810360008301526134a881612f0a565b90506134b76020830184613073565b92915050565b60006020820190506134d26000830184613073565b92915050565b60006134e26134f3565b90506134ee8282613820565b919050565b6000604051905090565b600067ffffffffffffffff82111561351857613517613927565b5b61352182613979565b9050602081019050919050565b6000819050602082019050919050565b6000819050602082019050919050565b600081519050919050565b600081519050919050565b600081519050919050565b6000602082019050919050565b6000602082019050919050565b600082825260208201905092915050565b600082825260208201905092915050565b600082825260208201905092915050565b600082825260208201905092915050565b600081905092915050565b600082825260208201905092915050565b60006135f482613756565b91506135ff83613756565b9250827fffffffffffffffffffffffffffffffffffffffffffffffffffffffffffffffff038211156136345761363361389a565b5b828201905092915050565b600061364a82613756565b915061365583613756565b9250817fffffffffffffffffffffffffffffffffffffffffffffffffffffffffffffffff048311821515161561368e5761368d61389a565b5b828202905092915050565b60006136a482613756565b91506136af83613756565b9250828210156136c2576136c161389a565b5b828203905092915050565b60006136d882613736565b9050919050565b60006136ea82613736565b9050919050565b60008115159050919050565b600081905061370b82613c6c565b919050565b600081905061371e82613c80565b919050565b600081905061373182613c94565b919050565b600073ffffffffffffffffffffffffffffffffffffffff82169050919050565b6000819050919050565b600061376b826137ba565b9050919050565b600061377d826136fd565b9050919050565b600061378f82613710565b9050919050565b60006137a182613723565b9050919050565b60006137b382613756565b9050919050565b60006137c5826137cc565b9050919050565b60006137d782613736565b9050919050565b82818337600083830152505050565b60005b8381101561380b5780820151818401526020810190506137f0565b8381111561381a576000848401525b50505050565b61382982613979565b810181811067ffffffffffffffff8211171561384857613847613927565b5b80604052505050565b600061385c82613756565b91507fffffffffffffffffffffffffffffffffffffffffffffffffffffffffffffffff82141561388f5761388e61389a565b5b600182019050919050565b7f4e487b7100000000000000000000000000000000000000000000000000000000600052601160045260246000fd5b7f4e487b7100000000000000000000000000000000000000000000000000000000600052602160045260246000fd5b7f4e487b7100000000000000000000000000000000000000000000000000000000600052603260045260246000fd5b7f4e487b7100000000000000000000000000000000000000000000000000000000600052604160045260246000fd5b600080fd5b600080fd5b600080fd5b600080fd5b600080fd5b600080fd5b600080fd5b6000601f19601f8301169050919050565b7f726573756c740000000000000000000000000000000000000000000000000000600082015250565b7f63616c6c6572206973206e6f7420746865206f776e6572210000000000000000600082015250565b7f616674657242616c616e63650000000000000000000000000000000000000000600082015250565b7f6265666f726542616c616e6365546f546f6b656e000000000000000000000000600082015250565b7f21736f6c6f000000000000000000000000000000000000000000000000000000600082015250565b7f7375636365737300000000000000000000000000000000000000000000000000600082015250565b7f6661696c656420746f2067657420776574680000000000000000000000000000600082015250565b7f217468697320636f6e7472616374000000000000000000000000000000000000600082015250565b7f6265666f726542616c616e636500000000000000000000000000000000000000600082015250565b7f737461727442616c000000000000000000000000000000000000000000000000600082015250565b7f4e6f206d61726b6574496420666f756e6420666f722070726f7669646564207460008201527f6f6b656e00000000000000000000000000000000000000000000000000000000602082015250565b7f62616c202d207265706179000000000000000000000000000000000000000000600082015250565b7f636f6e747261637420646964206e6f742067657420746865206c6f616e000000600082015250565b50565b7f7265706179000000000000000000000000000000000000000000000000000000600082015250565b7f616674657242616c6e616365546f546f6b656e00000000000000000000000000600082015250565b7f656e6442616c0000000000000000000000000000000000000000000000000000600082015250565b7f617070726f76616c000000000000000000000000000000000000000000000000600082015250565b60098110613c7d57613c7c6138c9565b5b50565b60028110613c9157613c906138c9565b5b50565b60028110613ca557613ca46138c9565b5b50565b613cb1816136cd565b8114613cbc57600080fd5b50565b613cc8816136df565b8114613cd357600080fd5b50565b613cdf816136f1565b8114613cea57600080fd5b50565b613cf681613756565b8114613d0157600080fd5b5056fea26469706673582212201247f114b14ca70606cc947a93fbc34041d9751367106397d9ff0f1b78e407cf64736f6c63430008070033",
  "immutableReferences": {},
  "source": "// SPDX-License-Identifier: MIT\r\npragma solidity ^0.8;\r\npragma experimental ABIEncoderV2;\r\n\r\nimport \"./interfaces/DydxFlashloanBase.sol\";\r\nimport \"./interfaces/ICallee.sol\";\r\nimport \"./interfaces/swapContracts.sol\";\r\n\r\ncontract DyDxSoloMarginTest is ICallee, DydxFlashloanBase {\r\n    address private constant SOLO = 0x1E0447b19BB6EcFdAe1e4AE1694b0C3659614e4e;\r\n\r\n    // JUST FOR TESTING - ITS OKAY TO REMOVE ALL OF THESE VARS\r\n    address public flashUser;\r\n\r\n\r\n    // Addresses\r\n    address payable OWNER;\r\n    \r\n    // Function to receive Ether. msg.data must be empty\r\n    receive() external payable {}\r\n\r\n    // Fallback function is called when msg.data is not empty\r\n    fallback() external payable {}\r\n\r\n\r\n    constructor() payable {\r\n        _getWeth(msg.value);\r\n        _approveWeth(msg.value);\r\n        OWNER = payable(msg.sender);\r\n    }\r\n\r\n    // OneSplit Config\r\n    address INCH_ROUTER_ADDRESS = 0x11111112542D85B3EF69AE05771c2dCCff4fAa26;\r\n\r\n    // ZRX Config\r\n    address ZRX_EXCHANGE_ADDRESS = 0x61935CbDd02287B511119DDb11Aeb42F1593b7Ef;\r\n    address ZRX_ERC20_PROXY_ADDRESS = 0x95E6F48254609A6ee006F7D493c8e5fB97094ceF;\r\n    address ZRX_STAKING_PROXY = 0xa26e80e7Dea86279c6d778D702Cc413E6CFfA777; // Fee collector\r\n\r\n    // TOKENS\r\n    address public WETH = 0xC02aaA39b223FE8D0A0e5C4F27eAD9083C756Cc2;\r\n    address public SAI = 0x89d24A6b4CcB1B6fAA2625fE562bDD9a23260359;\r\n    address public USDC = 0xA0b86991c6218b36c1d19D4a2e9Eb0cE3606eB48;\r\n    address public DAI = 0x6B175474E89094C44Da98b954EedeAC495271d0F;\r\n\r\n    // Modifiers\r\n    modifier onlyOwner() {\r\n        require(msg.sender == OWNER, \"caller is not the owner!\");\r\n        _;\r\n    }\r\n\r\n    event Log(string message, uint val);\r\n    event Log(string message, bytes val);\r\n\r\n    struct MyCustomData {\r\n        address token;\r\n        uint repayAmount;\r\n    }\r\n\r\n    function initiateFlashLoan(address flashToken, uint256 flashAmount, address arbToken,\r\n    bytes calldata zrxData, bytes calldata inchData) external payable {\r\n        ISoloMargin solo = ISoloMargin(SOLO);\r\n\r\n        // Get marketId from token address\r\n        /*\r\n        0\tWETH\r\n        1\tSAI\r\n        2\tUSDC\r\n        3\tDAI\r\n        */\r\n        uint marketId = _getMarketIdFromTokenAddress(SOLO, flashToken);\r\n\r\n        // Calculate repay amount (flashAmount + (2 wei))\r\n        uint repayAmount = _getRepaymentAmountInternal(flashAmount);\r\n        IERC20(flashToken).approve(SOLO, repayAmount);\r\n        \r\n        uint256 balanceBefore = IERC20(flashToken).balanceOf(address(this));\r\n        bytes memory data = abi.encode(flashToken, flashAmount, balanceBefore, repayAmount, arbToken, zrxData, inchData);\r\n\r\n        /*\r\n        1. Withdraw\r\n        2. Call callFunction()\r\n        3. Deposit back\r\n        */\r\n\r\n        Actions.ActionArgs[] memory operations = new Actions.ActionArgs[](3);\r\n\r\n        operations[0] = _getWithdrawAction(marketId, flashAmount);\r\n        operations[1] = _getCallAction(data);\r\n        operations[2] = _getDepositAction(marketId, repayAmount);\r\n\r\n        Account.Info[] memory accountInfos = new Account.Info[](1);\r\n        accountInfos[0] = _getAccountInfo();\r\n\r\n        solo.operate(accountInfos, operations);\r\n    }\r\n\r\n    //event balances(uint256 balanceBefore, uint256 balanceAfter);\r\n    function callFunction(\r\n        address sender,\r\n        Account.Info memory account,\r\n        bytes memory data\r\n    ) public override {\r\n        require(msg.sender == SOLO, \"!solo\");\r\n        require(sender == address(this), \"!this contract\");\r\n\r\n        (address flashToken, uint256 flashAmount, uint256 balanceBefore, uint256 repayAmount, address arbToken,\r\n        bytes memory zrxData, bytes memory inchData) = abi\r\n            .decode(data, (address, uint256, uint256, uint256, address, bytes, bytes));\r\n        uint256 balanceAfter = IERC20(flashToken).balanceOf(address(this));\r\n        //emit balances(balanceBefore, balanceAfter);\r\n        require(\r\n            balanceAfter - balanceBefore == flashAmount,\r\n            \"contract did not get the loan\"\r\n        );\r\n\r\n        //arbitrage code:\r\n        // Track original balance\r\n        uint256 _startBalance = IERC20(flashToken).balanceOf(address(this));\r\n\r\n        // Perform the arb trade\r\n        _trade(flashToken, arbToken, flashAmount, zrxData, inchData);\r\n\r\n        // Track result balance\r\n        uint256 _endBalance = IERC20(flashToken).balanceOf(address(this));\r\n\r\n        //require(_endBalance > _startBalance, \"End balance must exceed start balance.\");\r\n\r\n        flashUser = sender;\r\n        emit Log(\"startBal\", _startBalance);\r\n        emit Log(\"endBal\", _endBalance);\r\n        emit Log(\"repay\", repayAmount);\r\n        emit Log(\"bal - repay\", _startBalance - repayAmount);\r\n    }\r\n\r\n    function trade(address _fromToken, address _toToken, uint256 _fromAmount,\r\n    bytes memory _0xData, bytes memory _1inchData) onlyOwner payable public {\r\n        _trade(_fromToken, _toToken, _fromAmount, _0xData, _1inchData);\r\n    }\r\n\r\n    function _trade(address _fromToken, address _toToken, uint256 _fromAmount, bytes memory _0xData, bytes memory _1inchData) internal {\r\n        address _recipient = address(this);\r\n        // Track the balance of the token RECEIVED from the trade\r\n        uint256 _beforeBalance = IERC20(_toToken).balanceOf(_recipient);\r\n        emit Log(\"beforeBalanceToToken\", _beforeBalance);\r\n\r\n        // Swap on 0x: give _fromToken, receive _toToken\r\n        _zrxSwap(_fromToken, _fromAmount, _0xData);\r\n\r\n        // Calculate the how much of the token we received\r\n        uint256 _afterBalance = IERC20(_toToken).balanceOf(_recipient);\r\n\r\n        emit Log(\"afterBalnaceToToken\", _afterBalance);\r\n\r\n        // Read _toToken balance after swap\r\n        uint256 _toAmount = _afterBalance - _beforeBalance;\r\n\r\n        // Swap on uniswap\r\n        //_1inchSwap(_toToken, _toAmount, _1inchData);\r\n    }\r\n\r\n    function zrxSwap(address _from, uint256 _amount, bytes memory _callData) onlyOwner public payable {\r\n        _zrxSwap(_from, _amount, _callData);\r\n    }\r\n\r\n    function _zrxSwap(address _from, uint256 _amount, bytes memory _callData) internal {\r\n        // Approve tokens\r\n        IERC20 _fromIERC20 = IERC20(_from);\r\n        uint256 _beforeBalance = _fromIERC20.balanceOf(address(this));\r\n        emit Log(\"beforeBalance\", _beforeBalance);\r\n        \r\n        bool approval;\r\n        approval = _fromIERC20.approve(ZRX_ERC20_PROXY_ADDRESS, _amount);\r\n        \r\n        uint app = 2;\r\n        if (approval) {\r\n            app = 1;\r\n        } else {\r\n            app = 0;\r\n        }\r\n        emit Log(\"approval\", app);\r\n        \r\n        bool swapSuccess;\r\n        bytes memory result;\r\n        //gasprice*70000 is protocol fee\r\n        (swapSuccess, result) = address(ZRX_EXCHANGE_ADDRESS).call{value: tx.gasprice*70000, gas: 300000}(_callData);\r\n        \r\n        app = 2;\r\n        if (swapSuccess) {\r\n            app = 1;\r\n        } else {\r\n            app = 0;\r\n        }\r\n        emit Log(\"success\", app);\r\n        emit Log(\"result\", result);\r\n\r\n        uint256 _afterBalance = _fromIERC20.balanceOf(address(this));\r\n        emit Log(\"afterBalance\", _afterBalance);\r\n\r\n        // Reset approval\r\n        _fromIERC20.approve(ZRX_ERC20_PROXY_ADDRESS, 0);\r\n        \r\n        \r\n    }\r\n\r\n    function inchSwap(address _from, uint256 _amount, bytes memory _callData) onlyOwner public payable {\r\n        _1inchSwap(_from, _amount, _callData);\r\n    }\r\n\r\n    function _1inchSwap(address _from, uint256 _amount, bytes memory _callData) internal {\r\n        // Approve tokens\r\n        IERC20 _fromIERC20 = IERC20(_from);\r\n        uint256 _beforeBalance = _fromIERC20.balanceOf(address(this));\r\n        emit Log(\"beforeBalance\", _beforeBalance);\r\n        \r\n        bool approval;\r\n        approval = _fromIERC20.approve(INCH_ROUTER_ADDRESS, _amount);\r\n        \r\n        uint app = 2;\r\n        if (approval) {\r\n            app = 1;\r\n        } else {\r\n            app = 0;\r\n        }\r\n        emit Log(\"approval\", app);\r\n        \r\n        bool swapSuccess;\r\n        bytes memory result;\r\n        (swapSuccess, result) = address(INCH_ROUTER_ADDRESS).call{gas: 1000000}(_callData);\r\n        \r\n        app = 2;\r\n        if (swapSuccess) {\r\n            app = 1;\r\n        } else {\r\n            app = 0;\r\n        }\r\n        emit Log(\"success\", app);\r\n        emit Log(\"result\", result);\r\n\r\n        uint256 _afterBalance = _fromIERC20.balanceOf(address(this));\r\n        emit Log(\"afterBalance\", _afterBalance);\r\n\r\n        // Reset approval\r\n        _fromIERC20.approve(INCH_ROUTER_ADDRESS, 0);\r\n        \r\n        \r\n    }\r\n\r\n    function getWeth() public payable onlyOwner {\r\n        _getWeth(msg.value);\r\n    }\r\n\r\n    function _getWeth(uint256 _amount) internal {\r\n        (bool success, ) = WETH.call{value: _amount}(\"\");\r\n        require(success, \"failed to get weth\");\r\n    }\r\n\r\n    function approveWeth(uint256 _amount) public onlyOwner {\r\n        _approveWeth(_amount);\r\n    }\r\n\r\n    function _approveWeth(uint256 _amount) internal {\r\n        IERC20(WETH).approve(ZRX_STAKING_PROXY, _amount); // approves the 0x staking proxy - the proxy is the fee collector for 0x, i.e. if you want to use weth to pay\r\n    }\r\n\r\n    // KEEP THIS FUNCTION IN CASE THE CONTRACT RECEIVES TOKENS!\r\n    function withdrawToken(address _tokenAddress) public onlyOwner {\r\n        uint256 balance = IERC20(_tokenAddress).balanceOf(address(this));\r\n        IERC20(_tokenAddress).transfer(OWNER, balance);\r\n    }\r\n\r\n    // KEEP THIS FUNCTION IN CASE THE CONTRACT KEEPS LEFTOVER ETHER!\r\n    function withdrawEther() public onlyOwner {\r\n        address self = address(this); // workaround for a possible solidity bug\r\n        uint256 balance = self.balance;\r\n        OWNER.transfer(balance);\r\n    }\r\n\r\n    function setOwner(address payable _newOwner) public onlyOwner {\r\n        OWNER = _newOwner;\r\n    }\r\n}\r\n// Solo margin contract mainnet - 0x1e0447b19bb6ecfdae1e4ae1694b0c3659614e4e\r\n// payable proxy - 0xa8b39829cE2246f89B31C013b8Cde15506Fb9A76\r\n\r\n// https://etherscan.io/tx/0xda79adea5cdd8cb069feb43952ea0fc510e4b6df4a270edc8130d8118d19e3f4",
  "sourcePath": "D:/Code/JavaScript/Crypto/arbitrage/0x_1inch_rebuild/contracts/DyDxSoloMargin.sol",
  "compiler": {
    "name": "solc",
    "version": "0.8.7+commit.e28d00a7.Emscripten.clang"
  },
  "schemaVersion": "3.4.1",
  "updatedAt": "2021-08-15T18:34:56.781Z",
  "devdoc": {
    "kind": "dev",
    "methods": {},
    "version": 1
  },
  "userdoc": {
    "kind": "user",
    "methods": {},
    "version": 1
  }
}