{
  "contractName": "MyV2FlashLoan",
  "abi": [
    {
      "inputs": [
        {
          "internalType": "contract ILendingPoolAddressesProvider",
          "name": "_addressProvider",
          "type": "address"
        }
      ],
      "stateMutability": "nonpayable",
      "type": "constructor"
    },
    {
      "anonymous": false,
      "inputs": [
        {
          "indexed": false,
          "internalType": "string",
          "name": "message",
          "type": "string"
        },
        {
          "indexed": false,
          "internalType": "uint256",
          "name": "val",
          "type": "uint256"
        }
      ],
      "name": "Log",
      "type": "event"
    },
    {
      "anonymous": false,
      "inputs": [
        {
          "indexed": false,
          "internalType": "string",
          "name": "message",
          "type": "string"
        },
        {
          "indexed": false,
          "internalType": "bytes",
          "name": "val",
          "type": "bytes"
        }
      ],
      "name": "Log",
      "type": "event"
    },
    {
      "inputs": [],
      "name": "ADDRESSES_PROVIDER",
      "outputs": [
        {
          "internalType": "contract ILendingPoolAddressesProvider",
          "name": "",
          "type": "address"
        }
      ],
      "stateMutability": "view",
      "type": "function"
    },
    {
      "inputs": [],
      "name": "LENDING_POOL",
      "outputs": [
        {
          "internalType": "contract ILendingPool",
          "name": "",
          "type": "address"
        }
      ],
      "stateMutability": "view",
      "type": "function"
    },
    {
      "inputs": [
        {
          "internalType": "address",
          "name": "flashToken",
          "type": "address"
        },
        {
          "internalType": "uint256",
          "name": "flashAmount",
          "type": "uint256"
        },
        {
          "internalType": "address",
          "name": "arbToken",
          "type": "address"
        },
        {
          "internalType": "bytes",
          "name": "zrxData",
          "type": "bytes"
        },
        {
          "internalType": "bytes",
          "name": "inchData",
          "type": "bytes"
        }
      ],
      "name": "myFlashLoanCall",
      "outputs": [],
      "stateMutability": "nonpayable",
      "type": "function"
    },
    {
      "inputs": [
        {
          "internalType": "address[]",
          "name": "assets",
          "type": "address[]"
        },
        {
          "internalType": "uint256[]",
          "name": "amounts",
          "type": "uint256[]"
        },
        {
          "internalType": "uint256[]",
          "name": "premiums",
          "type": "uint256[]"
        },
        {
          "internalType": "address",
          "name": "initiator",
          "type": "address"
        },
        {
          "internalType": "bytes",
          "name": "params",
          "type": "bytes"
        }
      ],
      "name": "executeOperation",
      "outputs": [
        {
          "internalType": "bool",
          "name": "",
          "type": "bool"
        }
      ],
      "stateMutability": "nonpayable",
      "type": "function"
    },
    {
      "inputs": [
        {
          "internalType": "address",
          "name": "_from",
          "type": "address"
        },
        {
          "internalType": "uint256",
          "name": "_amount",
          "type": "uint256"
        },
        {
          "internalType": "bytes",
          "name": "_callData",
          "type": "bytes"
        }
      ],
      "name": "zrxSwap",
      "outputs": [],
      "stateMutability": "payable",
      "type": "function"
    },
    {
      "inputs": [
        {
          "internalType": "address",
          "name": "_from",
          "type": "address"
        },
        {
          "internalType": "uint256",
          "name": "_amount",
          "type": "uint256"
        },
        {
          "internalType": "bytes",
          "name": "_callData",
          "type": "bytes"
        }
      ],
      "name": "inchSwap",
      "outputs": [],
      "stateMutability": "payable",
      "type": "function"
    },
    {
      "inputs": [
        {
          "internalType": "address",
          "name": "_tokenAddress",
          "type": "address"
        }
      ],
      "name": "withdrawToken",
      "outputs": [],
      "stateMutability": "nonpayable",
      "type": "function"
    },
    {
      "inputs": [],
      "name": "withdrawEther",
      "outputs": [],
      "stateMutability": "nonpayable",
      "type": "function"
    },
    {
      "inputs": [
        {
          "internalType": "address payable",
          "name": "_newOwner",
          "type": "address"
        }
      ],
      "name": "setOwner",
      "outputs": [],
      "stateMutability": "nonpayable",
      "type": "function"
    }
  ],
  "bytecode": "0x60c06040527311111112542d85b3ef69ae05771c2dccff4faa26600160006101000a81548173ffffffffffffffffffffffffffffffffffffffff021916908373ffffffffffffffffffffffffffffffffffffffff1602179055507361935cbdd02287b511119ddb11aeb42f1593b7ef600260006101000a81548173ffffffffffffffffffffffffffffffffffffffff021916908373ffffffffffffffffffffffffffffffffffffffff1602179055507395e6f48254609a6ee006f7d493c8e5fb97094cef600360006101000a81548173ffffffffffffffffffffffffffffffffffffffff021916908373ffffffffffffffffffffffffffffffffffffffff16021790555073a26e80e7dea86279c6d778d702cc413e6cffa777600460006101000a81548173ffffffffffffffffffffffffffffffffffffffff021916908373ffffffffffffffffffffffffffffffffffffffff16021790555034801561016457600080fd5b5060405162002ad238038062002ad28339818101604052602081101561018957600080fd5b8101908080519060200190929190505050808073ffffffffffffffffffffffffffffffffffffffff1660808173ffffffffffffffffffffffffffffffffffffffff1660601b815250508073ffffffffffffffffffffffffffffffffffffffff16630261bf8b6040518163ffffffff1660e01b815260040160206040518083038186803b15801561021857600080fd5b505afa15801561022c573d6000803e3d6000fd5b505050506040513d602081101561024257600080fd5b810190808051906020019092919050505073ffffffffffffffffffffffffffffffffffffffff1660a08173ffffffffffffffffffffffffffffffffffffffff1660601b81525050507fdd970dd9b5bfe707922155b058a407655cb18288b807e2216442bca8ad83d6b5600860405180806020018381526020018281038252600b8152602001807f636f6e7374727563746f720000000000000000000000000000000000000000008152506020019250505060405180910390a15060805160601c60a05160601c6127a262000330600039806110405280611264528061170952508061067252506127a26000f3fe6080604052600436106100865760003560e01c8063920f5c8411610059578063920f5c8414610185578063b183e61314610340578063b4dcfc7714610465578063c8c61a79146104a6578063cb6ac7581461058b57610086565b80630542975c1461008b57806313af4035146100cc5780637362377b1461011d5780638947606914610134575b600080fd5b34801561009757600080fd5b506100a0610670565b604051808273ffffffffffffffffffffffffffffffffffffffff16815260200191505060405180910390f35b3480156100d857600080fd5b5061011b600480360360208110156100ef57600080fd5b81019080803573ffffffffffffffffffffffffffffffffffffffff169060200190929190505050610694565b005b34801561012957600080fd5b50610132610798565b005b34801561014057600080fd5b506101836004803603602081101561015757600080fd5b81019080803573ffffffffffffffffffffffffffffffffffffffff1690602001909291905050506108e5565b005b34801561019157600080fd5b50610328600480360360a08110156101a857600080fd5b81019080803590602001906401000000008111156101c557600080fd5b8201836020820111156101d757600080fd5b803590602001918460208302840111640100000000831117156101f957600080fd5b90919293919293908035906020019064010000000081111561021a57600080fd5b82018360208201111561022c57600080fd5b8035906020019184602083028401116401000000008311171561024e57600080fd5b90919293919293908035906020019064010000000081111561026f57600080fd5b82018360208201111561028157600080fd5b803590602001918460208302840111640100000000831117156102a357600080fd5b9091929391929390803573ffffffffffffffffffffffffffffffffffffffff169060200190929190803590602001906401000000008111156102e457600080fd5b8201836020820111156102f657600080fd5b8035906020019184600183028401116401000000008311171561031857600080fd5b9091929391929390505050610b1d565b60405180821515815260200191505060405180910390f35b34801561034c57600080fd5b50610463600480360360a081101561036357600080fd5b81019080803573ffffffffffffffffffffffffffffffffffffffff16906020019092919080359060200190929190803573ffffffffffffffffffffffffffffffffffffffff169060200190929190803590602001906401000000008111156103ca57600080fd5b8201836020820111156103dc57600080fd5b803590602001918460018302840111640100000000831117156103fe57600080fd5b90919293919293908035906020019064010000000081111561041f57600080fd5b82018360208201111561043157600080fd5b8035906020019184600183028401116401000000008311171561045357600080fd5b9091929391929390505050610d81565b005b34801561047157600080fd5b5061047a611262565b604051808273ffffffffffffffffffffffffffffffffffffffff16815260200191505060405180910390f35b610589600480360360608110156104bc57600080fd5b81019080803573ffffffffffffffffffffffffffffffffffffffff169060200190929190803590602001909291908035906020019064010000000081111561050357600080fd5b82018360208201111561051557600080fd5b8035906020019184600183028401116401000000008311171561053757600080fd5b91908080601f016020809104026020016040519081016040528093929190818152602001838380828437600081840152601f19601f820116905080830192505050505050509192919290505050611286565b005b61066e600480360360608110156105a157600080fd5b81019080803573ffffffffffffffffffffffffffffffffffffffff16906020019092919080359060200190929190803590602001906401000000008111156105e857600080fd5b8201836020820111156105fa57600080fd5b8035906020019184600183028401116401000000008311171561061c57600080fd5b91908080601f016020809104026020016040519081016040528093929190818152602001838380828437600081840152601f19601f820116905080830192505050505050509192919290505050611357565b005b7f000000000000000000000000000000000000000000000000000000000000000081565b60008054906101000a900473ffffffffffffffffffffffffffffffffffffffff1673ffffffffffffffffffffffffffffffffffffffff163373ffffffffffffffffffffffffffffffffffffffff1614610755576040517f08c379a00000000000000000000000000000000000000000000000000000000081526004018080602001828103825260188152602001807f63616c6c6572206973206e6f7420746865206f776e657221000000000000000081525060200191505060405180910390fd5b806000806101000a81548173ffffffffffffffffffffffffffffffffffffffff021916908373ffffffffffffffffffffffffffffffffffffffff16021790555050565b60008054906101000a900473ffffffffffffffffffffffffffffffffffffffff1673ffffffffffffffffffffffffffffffffffffffff163373ffffffffffffffffffffffffffffffffffffffff1614610859576040517f08c379a00000000000000000000000000000000000000000000000000000000081526004018080602001828103825260188152602001807f63616c6c6572206973206e6f7420746865206f776e657221000000000000000081525060200191505060405180910390fd5b600030905060008173ffffffffffffffffffffffffffffffffffffffff1631905060008054906101000a900473ffffffffffffffffffffffffffffffffffffffff1673ffffffffffffffffffffffffffffffffffffffff166108fc829081150290604051600060405180830381858888f193505050501580156108e0573d6000803e3d6000fd5b505050565b60008054906101000a900473ffffffffffffffffffffffffffffffffffffffff1673ffffffffffffffffffffffffffffffffffffffff163373ffffffffffffffffffffffffffffffffffffffff16146109a6576040517f08c379a00000000000000000000000000000000000000000000000000000000081526004018080602001828103825260188152602001807f63616c6c6572206973206e6f7420746865206f776e657221000000000000000081525060200191505060405180910390fd5b60008173ffffffffffffffffffffffffffffffffffffffff166370a08231306040518263ffffffff1660e01b8152600401808273ffffffffffffffffffffffffffffffffffffffff16815260200191505060206040518083038186803b158015610a0f57600080fd5b505afa158015610a23573d6000803e3d6000fd5b505050506040513d6020811015610a3957600080fd5b810190808051906020019092919050505090508173ffffffffffffffffffffffffffffffffffffffff1663a9059cbb60008054906101000a900473ffffffffffffffffffffffffffffffffffffffff16836040518363ffffffff1660e01b8152600401808373ffffffffffffffffffffffffffffffffffffffff16815260200182815260200192505050602060405180830381600087803b158015610add57600080fd5b505af1158015610af1573d6000803e3d6000fd5b505050506040513d6020811015610b0757600080fd5b8101908080519060200190929190505050505050565b600080600060608086866080811015610b3557600080fd5b8101908080359060200190929190803573ffffffffffffffffffffffffffffffffffffffff16906020019092919080359060200190640100000000811115610b7c57600080fd5b820183602082011115610b8e57600080fd5b80359060200191846001830284011164010000000083111715610bb057600080fd5b91908080601f016020809104026020016040519081016040528093929190818152602001838380828437600081840152601f19601f82011690508083019250505050505050919291929080359060200190640100000000811115610c1357600080fd5b820183602082011115610c2557600080fd5b80359060200191846001830284011164010000000083111715610c4757600080fd5b91908080601f016020809104026020016040519081016040528093929190818152602001838380828437600081840152601f19601f8201169050808301925050505050505091929192905050509350935093509350610d6b8e8e80806020026020016040519081016040528093929190818152602001838360200280828437600081840152601f19601f820116905080830192505050505050508d8d80806020026020016040519081016040528093929190818152602001838360200280828437600081840152601f19601f820116905080830192505050505050508c8c80806020026020016040519081016040528093929190818152602001838360200280828437600081840152601f19601f8201169050808301925050505050505087611428565b5060019450505050509998505050505050505050565b60003090506060600167ffffffffffffffff81118015610da057600080fd5b50604051908082528060200260200182016040528015610dcf5781602001602082028036833780820191505090505b5090508881600081518110610de057fe5b602002602001019073ffffffffffffffffffffffffffffffffffffffff16908173ffffffffffffffffffffffffffffffffffffffff16815250506060600167ffffffffffffffff81118015610e3457600080fd5b50604051908082528060200260200182016040528015610e635781602001602082028036833780820191505090505b5090508881600081518110610e7457fe5b6020026020010181815250506060600167ffffffffffffffff81118015610e9a57600080fd5b50604051908082528060200260200182016040528015610ec95781602001602082028036833780820191505090505b509050600081600081518110610edb57fe5b60200260200101818152505060008b73ffffffffffffffffffffffffffffffffffffffff166370a08231306040518263ffffffff1660e01b8152600401808273ffffffffffffffffffffffffffffffffffffffff16815260200191505060206040518083038186803b158015610f5057600080fd5b505afa158015610f64573d6000803e3d6000fd5b505050506040513d6020811015610f7a57600080fd5b810190808051906020019092919050505090506060818b8b8b8b8b604051602001808781526020018673ffffffffffffffffffffffffffffffffffffffff16815260200180602001806020018381038352878782818152602001925080828437600081840152601f19601f8201169050808301925050508381038252858582818152602001925080828437600081840152601f19601f820116905080830192505050985050505050505050506040516020818303038152906040529050600030905060007f000000000000000000000000000000000000000000000000000000000000000073ffffffffffffffffffffffffffffffffffffffff1663ab9c4b5d898989898789886040518863ffffffff1660e01b8152600401808873ffffffffffffffffffffffffffffffffffffffff1681526020018060200180602001806020018773ffffffffffffffffffffffffffffffffffffffff168152602001806020018661ffff16815260200185810385528b818151815260200191508051906020019060200280838360005b83811015611121578082015181840152602081019050611106565b5050505090500185810384528a818151815260200191508051906020019060200280838360005b83811015611163578082015181840152602081019050611148565b50505050905001858103835289818151815260200191508051906020019060200280838360005b838110156111a557808201518184015260208101905061118a565b50505050905001858103825287818151815260200191508051906020019080838360005b838110156111e45780820151818401526020810190506111c9565b50505050905090810190601f1680156112115780820380516001836020036101000a031916815260200191505b509b505050505050505050505050600060405180830381600087803b15801561123957600080fd5b505af115801561124d573d6000803e3d6000fd5b50505050505050505050505050505050505050565b7f000000000000000000000000000000000000000000000000000000000000000081565b60008054906101000a900473ffffffffffffffffffffffffffffffffffffffff1673ffffffffffffffffffffffffffffffffffffffff163373ffffffffffffffffffffffffffffffffffffffff1614611347576040517f08c379a00000000000000000000000000000000000000000000000000000000081526004018080602001828103825260188152602001807f63616c6c6572206973206e6f7420746865206f776e657221000000000000000081525060200191505060405180910390fd5b611352838383611985565b505050565b60008054906101000a900473ffffffffffffffffffffffffffffffffffffffff1673ffffffffffffffffffffffffffffffffffffffff163373ffffffffffffffffffffffffffffffffffffffff1614611418576040517f08c379a00000000000000000000000000000000000000000000000000000000081526004018080602001828103825260188152602001807f63616c6c6572206973206e6f7420746865206f776e657221000000000000000081525060200191505060405180910390fd5b611423838383612038565b505050565b6000808560008151811061143857fe5b602002602001015173ffffffffffffffffffffffffffffffffffffffff166370a08231306040518263ffffffff1660e01b8152600401808273ffffffffffffffffffffffffffffffffffffffff16815260200191505060206040518083038186803b1580156114a657600080fd5b505afa1580156114ba573d6000803e3d6000fd5b505050506040513d60208110156114d057600080fd5b81019080805190602001909291905050509050846000815181106114f057fe5b60200260200101518382031461156e576040517f08c379a000000000000000000000000000000000000000000000000000000000815260040180806020018281038252601d8152602001807f636f6e747261637420646964206e6f742067657420746865206c6f616e00000081525060200191505060405180910390fd5b7fdd970dd9b5bfe707922155b058a407655cb18288b807e2216442bca8ad83d6b58160405180806020018381526020018281038252600e8152602001807f42616c616e63652041667465723a0000000000000000000000000000000000008152506020019250505060405180910390a16000866000815181106115ed57fe5b602002602001015173ffffffffffffffffffffffffffffffffffffffff166370a08231306040518263ffffffff1660e01b8152600401808273ffffffffffffffffffffffffffffffffffffffff16815260200191505060206040518083038186803b15801561165b57600080fd5b505afa15801561166f573d6000803e3d6000fd5b505050506040513d602081101561168557600080fd5b8101908080519060200190929190505050905060006116d5866000815181106116aa57fe5b6020026020010151886000815181106116bf57fe5b60200260200101516126e490919063ffffffff16565b9050876000815181106116e457fe5b602002602001015173ffffffffffffffffffffffffffffffffffffffff1663095ea7b37f0000000000000000000000000000000000000000000000000000000000000000836040518363ffffffff1660e01b8152600401808373ffffffffffffffffffffffffffffffffffffffff16815260200182815260200192505050602060405180830381600087803b15801561177c57600080fd5b505af1158015611790573d6000803e3d6000fd5b505050506040513d60208110156117a657600080fd5b8101908080519060200190929190505050507fdd970dd9b5bfe707922155b058a407655cb18288b807e2216442bca8ad83d6b5826040518080602001838152602001828103825260068152602001807f656e6442616c00000000000000000000000000000000000000000000000000008152506020019250505060405180910390a17fdd970dd9b5bfe707922155b058a407655cb18288b807e2216442bca8ad83d6b5836040518080602001838152602001828103825260088152602001807f737461727442616c0000000000000000000000000000000000000000000000008152506020019250505060405180910390a17fdd970dd9b5bfe707922155b058a407655cb18288b807e2216442bca8ad83d6b5816040518080602001838152602001828103825260058152602001807f72657061790000000000000000000000000000000000000000000000000000008152506020019250505060405180910390a17fdd970dd9b5bfe707922155b058a407655cb18288b807e2216442bca8ad83d6b581840360405180806020018381526020018281038252600b8152602001807f62616c202d2072657061790000000000000000000000000000000000000000008152506020019250505060405180910390a1505050949350505050565b600083905060008173ffffffffffffffffffffffffffffffffffffffff166370a08231306040518263ffffffff1660e01b8152600401808273ffffffffffffffffffffffffffffffffffffffff16815260200191505060206040518083038186803b1580156119f357600080fd5b505afa158015611a07573d6000803e3d6000fd5b505050506040513d6020811015611a1d57600080fd5b810190808051906020019092919050505090507fdd970dd9b5bfe707922155b058a407655cb18288b807e2216442bca8ad83d6b58160405180806020018381526020018281038252600d8152602001807f6265666f726542616c616e6365000000000000000000000000000000000000008152506020019250505060405180910390a160008273ffffffffffffffffffffffffffffffffffffffff1663095ea7b3600360009054906101000a900473ffffffffffffffffffffffffffffffffffffffff16876040518363ffffffff1660e01b8152600401808373ffffffffffffffffffffffffffffffffffffffff16815260200182815260200192505050602060405180830381600087803b158015611b3557600080fd5b505af1158015611b49573d6000803e3d6000fd5b505050506040513d6020811015611b5f57600080fd5b810190808051906020019092919050505090506000600290508115611b875760019050611b8c565b600090505b7fdd970dd9b5bfe707922155b058a407655cb18288b807e2216442bca8ad83d6b5816040518080602001838152602001828103825260088152602001807f617070726f76616c0000000000000000000000000000000000000000000000008152506020019250505060405180910390a160006060600260009054906101000a900473ffffffffffffffffffffffffffffffffffffffff1673ffffffffffffffffffffffffffffffffffffffff16620111703a02620493e090896040518082805190602001908083835b60208310611c785780518252602082019150602081019050602083039250611c55565b6001836020036101000a038019825116818451168082178552505050505050905001915050600060405180830381858888f193505050503d8060008114611cdb576040519150601f19603f3d011682016040523d82523d6000602084013e611ce0565b606091505b508092508193505050600292508115611cfc5760019250611d01565b600092505b7fdd970dd9b5bfe707922155b058a407655cb18288b807e2216442bca8ad83d6b5836040518080602001838152602001828103825260078152602001807f73756363657373000000000000000000000000000000000000000000000000008152506020019250505060405180910390a17f381e6feca73f11fec6ca464f9d2a06ae1bb0ee33a55355e128d2d3aca53cc5f481604051808060200180602001838103835260068152602001807f726573756c740000000000000000000000000000000000000000000000000000815250602001838103825284818151815260200191508051906020019080838360005b83811015611e0b578082015181840152602081019050611df0565b50505050905090810190601f168015611e385780820380516001836020036101000a031916815260200191505b50935050505060405180910390a160008673ffffffffffffffffffffffffffffffffffffffff166370a08231306040518263ffffffff1660e01b8152600401808273ffffffffffffffffffffffffffffffffffffffff16815260200191505060206040518083038186803b158015611eaf57600080fd5b505afa158015611ec3573d6000803e3d6000fd5b505050506040513d6020811015611ed957600080fd5b810190808051906020019092919050505090507fdd970dd9b5bfe707922155b058a407655cb18288b807e2216442bca8ad83d6b58160405180806020018381526020018281038252600c8152602001807f616674657242616c616e636500000000000000000000000000000000000000008152506020019250505060405180910390a18673ffffffffffffffffffffffffffffffffffffffff1663095ea7b3600360009054906101000a900473ffffffffffffffffffffffffffffffffffffffff1660006040518363ffffffff1660e01b8152600401808373ffffffffffffffffffffffffffffffffffffffff16815260200182815260200192505050602060405180830381600087803b158015611ff057600080fd5b505af1158015612004573d6000803e3d6000fd5b505050506040513d602081101561201a57600080fd5b81019080805190602001909291905050505050505050505050505050565b600083905060008173ffffffffffffffffffffffffffffffffffffffff166370a08231306040518263ffffffff1660e01b8152600401808273ffffffffffffffffffffffffffffffffffffffff16815260200191505060206040518083038186803b1580156120a657600080fd5b505afa1580156120ba573d6000803e3d6000fd5b505050506040513d60208110156120d057600080fd5b810190808051906020019092919050505090507fdd970dd9b5bfe707922155b058a407655cb18288b807e2216442bca8ad83d6b58160405180806020018381526020018281038252600d8152602001807f6265666f726542616c616e6365000000000000000000000000000000000000008152506020019250505060405180910390a160008273ffffffffffffffffffffffffffffffffffffffff1663095ea7b3600160009054906101000a900473ffffffffffffffffffffffffffffffffffffffff16876040518363ffffffff1660e01b8152600401808373ffffffffffffffffffffffffffffffffffffffff16815260200182815260200192505050602060405180830381600087803b1580156121e857600080fd5b505af11580156121fc573d6000803e3d6000fd5b505050506040513d602081101561221257600080fd5b81019080805190602001909291905050509050600060029050811561223a576001905061223f565b600090505b7fdd970dd9b5bfe707922155b058a407655cb18288b807e2216442bca8ad83d6b5816040518080602001838152602001828103825260088152602001807f617070726f76616c0000000000000000000000000000000000000000000000008152506020019250505060405180910390a160006060600160009054906101000a900473ffffffffffffffffffffffffffffffffffffffff1673ffffffffffffffffffffffffffffffffffffffff16620f4240886040518082805190602001908083835b602083106123245780518252602082019150602081019050602083039250612301565b6001836020036101000a03801982511681845116808217855250505050505090500191505060006040518083038160008787f1925050503d8060008114612387576040519150601f19603f3d011682016040523d82523d6000602084013e61238c565b606091505b5080925081935050506002925081156123a857600192506123ad565b600092505b7fdd970dd9b5bfe707922155b058a407655cb18288b807e2216442bca8ad83d6b5836040518080602001838152602001828103825260078152602001807f73756363657373000000000000000000000000000000000000000000000000008152506020019250505060405180910390a17f381e6feca73f11fec6ca464f9d2a06ae1bb0ee33a55355e128d2d3aca53cc5f481604051808060200180602001838103835260068152602001807f726573756c740000000000000000000000000000000000000000000000000000815250602001838103825284818151815260200191508051906020019080838360005b838110156124b757808201518184015260208101905061249c565b50505050905090810190601f1680156124e45780820380516001836020036101000a031916815260200191505b50935050505060405180910390a160008673ffffffffffffffffffffffffffffffffffffffff166370a08231306040518263ffffffff1660e01b8152600401808273ffffffffffffffffffffffffffffffffffffffff16815260200191505060206040518083038186803b15801561255b57600080fd5b505afa15801561256f573d6000803e3d6000fd5b505050506040513d602081101561258557600080fd5b810190808051906020019092919050505090507fdd970dd9b5bfe707922155b058a407655cb18288b807e2216442bca8ad83d6b58160405180806020018381526020018281038252600c8152602001807f616674657242616c616e636500000000000000000000000000000000000000008152506020019250505060405180910390a18673ffffffffffffffffffffffffffffffffffffffff1663095ea7b3600160009054906101000a900473ffffffffffffffffffffffffffffffffffffffff1660006040518363ffffffff1660e01b8152600401808373ffffffffffffffffffffffffffffffffffffffff16815260200182815260200192505050602060405180830381600087803b15801561269c57600080fd5b505af11580156126b0573d6000803e3d6000fd5b505050506040513d60208110156126c657600080fd5b81019080805190602001909291905050505050505050505050505050565b600080828401905083811015612762576040517f08c379a000000000000000000000000000000000000000000000000000000000815260040180806020018281038252601b8152602001807f536166654d6174683a206164646974696f6e206f766572666c6f77000000000081525060200191505060405180910390fd5b809150509291505056fea2646970667358221220196f21dab79cc971c4c00c3c2caa4fb73a51b915f35c8d79988b63dac1b2069064736f6c634300060c0033",
  "immutableReferences": {
    "19": [
      {
        "length": 32,
        "start": 1650
      }
    ],
    "21": [
      {
        "length": 32,
        "start": 4160
      },
      {
        "length": 32,
        "start": 4708
      },
      {
        "length": 32,
        "start": 5897
      }
    ]
  },
  "source": "// SPDX-License-Identifier: agpl-3.0\r\npragma solidity 0.6.12;\r\n\r\nimport { FlashLoanReceiverBase } from \"./FlashLoanReceiverBase.sol\";\r\nimport { ILendingPool, ILendingPoolAddressesProvider, IERC20 } from \"./Interfaces.sol\";\r\nimport { SafeMath } from \"./Libraries.sol\";\r\n\r\n/** \r\n    !!!\r\n    Never keep funds permanently on your FlashLoanReceiverBase contract as they could be \r\n    exposed to a 'griefing' attack, where the stored funds are used by an attacker.\r\n    !!!\r\n */\r\ncontract MyV2FlashLoan is FlashLoanReceiverBase {\r\n    using SafeMath for uint256;\r\n\r\n    event Log(string message, uint val);\r\n    event Log(string message, bytes val);\r\n\r\n    address payable OWNER;\r\n\r\n    // Modifiers\r\n    modifier onlyOwner() {\r\n        require(msg.sender == OWNER, \"caller is not the owner!\");\r\n        _;\r\n    }\r\n\r\n    //TODO:Find address provider and see how to deploy contract with constructor\r\n    constructor(ILendingPoolAddressesProvider _addressProvider) FlashLoanReceiverBase(_addressProvider) public {\r\n        emit Log('constructor', 8);\r\n        //OWNER = payable(msg.sender);\r\n    }\r\n\r\n    // OneSplit Config\r\n    address INCH_ROUTER_ADDRESS = 0x11111112542D85B3EF69AE05771c2dCCff4fAa26;\r\n\r\n    // ZRX Config\r\n    address ZRX_EXCHANGE_ADDRESS = 0x61935CbDd02287B511119DDb11Aeb42F1593b7Ef;\r\n    address ZRX_ERC20_PROXY_ADDRESS = 0x95E6F48254609A6ee006F7D493c8e5fB97094ceF;\r\n    address ZRX_STAKING_PROXY = 0xa26e80e7Dea86279c6d778D702Cc413E6CFfA777; // Fee collector\r\n\r\n    function myFlashLoanCall(address flashToken, uint256 flashAmount, address arbToken,\r\n    bytes calldata zrxData, bytes calldata inchData) public {\r\n        address receiverAddress = address(this);\r\n\r\n        address[] memory assets = new address[](1);\r\n        assets[0] = flashToken;\r\n\r\n        uint256[] memory amounts = new uint256[](1);\r\n        amounts[0] = flashAmount;\r\n\r\n        // 0 = no debt, 1 = stable, 2 = variable\r\n        uint256[] memory modes = new uint256[](1);\r\n        modes[0] = 0;\r\n\r\n        uint256 balanceBefore = IERC20(flashToken).balanceOf(address(this));\r\n        bytes memory params = abi.encode(balanceBefore, arbToken, zrxData, inchData);\r\n\r\n        address onBehalfOf = address(this);\r\n        uint16 referralCode = 0;\r\n\r\n        LENDING_POOL.flashLoan(\r\n            receiverAddress,\r\n            assets,\r\n            amounts,\r\n            modes,\r\n            onBehalfOf,\r\n            params,\r\n            referralCode\r\n        );\r\n    }\r\n\r\n    /**\r\n        This function is called after your contract has received the flash loaned amount\r\n     */\r\n    function executeOperation(\r\n        address[] calldata assets,\r\n        uint256[] calldata amounts,\r\n        uint256[] calldata premiums,\r\n        address initiator,\r\n        bytes calldata params\r\n    )\r\n        external\r\n        override\r\n        returns (bool)\r\n    {\r\n        (uint256 balanceBefore, address arbToken, \r\n        bytes memory zrxData, bytes memory inchData) = abi.decode(params, (uint256, address, bytes, bytes));\r\n        //address flashToken = assets[0];\r\n        //uint256 amounts[0] = amounts[0];\r\n        _repay(assets, amounts, premiums, balanceBefore);\r\n\r\n\r\n        return true;\r\n    }\r\n\r\n    function _repay (address[] memory _assets, uint256[] memory _amounts, uint256[] memory _premiums, uint256 balanceBefore)\r\n    internal returns(uint256){\r\n        uint256 balanceAfter = IERC20(_assets[0]).balanceOf(address(this));\r\n        require(balanceAfter - balanceBefore == _amounts[0], \"contract did not get the loan\");\r\n        emit Log(\"Balance After:\", balanceAfter);\r\n\r\n        //Perform arbitrage\r\n        //_trade(assets[0], arbToken, amounts[0], zrxData, inchData);\r\n\r\n        // Approve the LendingPool contract allowance to *pull* the owed amount\r\n        uint256 _endBalance = IERC20(_assets[0]).balanceOf(address(this));\r\n\r\n        uint256 amountOwing = _amounts[0].add(_premiums[0]);\r\n        IERC20(_assets[0]).approve(address(LENDING_POOL), amountOwing);\r\n\r\n        emit Log(\"endBal\", _endBalance);\r\n        emit Log(\"startBal\", balanceAfter);\r\n        emit Log(\"repay\", amountOwing);\r\n        emit Log(\"bal - repay\", balanceAfter - amountOwing);\r\n    }\r\n\r\n    function _trade(address _fromToken, address _toToken, uint256 _fromAmount, bytes memory _0xData, bytes memory _1inchData) internal {\r\n        address _recipient = address(this);\r\n        // Track the balance of the token RECEIVED from the trade\r\n        uint256 _beforeBalance = IERC20(_toToken).balanceOf(_recipient);\r\n        emit Log(\"beforeBalanceToToken\", _beforeBalance);\r\n\r\n        // Swap on 0x: give _fromToken, receive _toToken\r\n        _zrxSwap(_fromToken, _fromAmount, _0xData);\r\n\r\n        // Calculate the how much of the token we received\r\n        uint256 _afterBalance = IERC20(_toToken).balanceOf(_recipient);\r\n\r\n        emit Log(\"afterBalnaceToToken\", _afterBalance);\r\n\r\n        // Read _toToken balance after swap\r\n        uint256 _toAmount = _afterBalance - _beforeBalance;\r\n\r\n        // Swap on uniswap\r\n        _1inchSwap(_toToken, _toAmount, _1inchData);\r\n    }\r\n\r\n    function zrxSwap(address _from, uint256 _amount, bytes memory _callData) onlyOwner public payable {\r\n        _zrxSwap(_from, _amount, _callData);\r\n    }\r\n\r\n    function _zrxSwap(address _from, uint256 _amount, bytes memory _callData) internal {\r\n        // Approve tokens\r\n        IERC20 _fromIERC20 = IERC20(_from);\r\n        uint256 _beforeBalance = _fromIERC20.balanceOf(address(this));\r\n        emit Log(\"beforeBalance\", _beforeBalance);\r\n        \r\n        bool approval;\r\n        approval = _fromIERC20.approve(ZRX_ERC20_PROXY_ADDRESS, _amount);\r\n        \r\n        uint app = 2;\r\n        if (approval) {\r\n            app = 1;\r\n        } else {\r\n            app = 0;\r\n        }\r\n        emit Log(\"approval\", app);\r\n        \r\n        bool swapSuccess;\r\n        bytes memory result;\r\n        //gasprice*70000 is protocol fee\r\n        (swapSuccess, result) = address(ZRX_EXCHANGE_ADDRESS).call{value: tx.gasprice*70000, gas: 300000}(_callData);\r\n        \r\n        app = 2;\r\n        if (swapSuccess) {\r\n            app = 1;\r\n        } else {\r\n            app = 0;\r\n        }\r\n        emit Log(\"success\", app);\r\n        emit Log(\"result\", result);\r\n\r\n        uint256 _afterBalance = _fromIERC20.balanceOf(address(this));\r\n        emit Log(\"afterBalance\", _afterBalance);\r\n\r\n        // Reset approval\r\n        _fromIERC20.approve(ZRX_ERC20_PROXY_ADDRESS, 0);\r\n    }\r\n\r\n    function inchSwap(address _from, uint256 _amount, bytes memory _callData) onlyOwner public payable {\r\n        _1inchSwap(_from, _amount, _callData);\r\n    }\r\n\r\n    function _1inchSwap(address _from, uint256 _amount, bytes memory _callData) internal {\r\n        // Approve tokens\r\n        IERC20 _fromIERC20 = IERC20(_from);\r\n        uint256 _beforeBalance = _fromIERC20.balanceOf(address(this));\r\n        emit Log(\"beforeBalance\", _beforeBalance);\r\n        \r\n        bool approval;\r\n        approval = _fromIERC20.approve(INCH_ROUTER_ADDRESS, _amount);\r\n        \r\n        uint app = 2;\r\n        if (approval) {\r\n            app = 1;\r\n        } else {\r\n            app = 0;\r\n        }\r\n        emit Log(\"approval\", app);\r\n        \r\n        bool swapSuccess;\r\n        bytes memory result;\r\n        (swapSuccess, result) = address(INCH_ROUTER_ADDRESS).call{gas: 1000000}(_callData);\r\n        \r\n        app = 2;\r\n        if (swapSuccess) {\r\n            app = 1;\r\n        } else {\r\n            app = 0;\r\n        }\r\n        emit Log(\"success\", app);\r\n        emit Log(\"result\", result);\r\n\r\n        uint256 _afterBalance = _fromIERC20.balanceOf(address(this));\r\n        emit Log(\"afterBalance\", _afterBalance);\r\n\r\n        // Reset approval\r\n        _fromIERC20.approve(INCH_ROUTER_ADDRESS, 0);\r\n    }\r\n\r\n    // KEEP THIS FUNCTION IN CASE THE CONTRACT RECEIVES TOKENS!\r\n    function withdrawToken(address _tokenAddress) public onlyOwner {\r\n        uint256 balance = IERC20(_tokenAddress).balanceOf(address(this));\r\n        IERC20(_tokenAddress).transfer(OWNER, balance);\r\n    }\r\n\r\n    // KEEP THIS FUNCTION IN CASE THE CONTRACT KEEPS LEFTOVER ETHER!\r\n    function withdrawEther() public onlyOwner {\r\n        address self = address(this); // workaround for a possible solidity bug\r\n        uint256 balance = self.balance;\r\n        OWNER.transfer(balance);\r\n    }\r\n\r\n    function setOwner(address payable _newOwner) public onlyOwner {\r\n        OWNER = _newOwner;\r\n    }\r\n\r\n}\r\n",
  "sourcePath": "D:/Code/JavaScript/Crypto/arbitrage/0x_1inch_aave/contracts/MyV2FlashLoan.sol",
  "compiler": {
    "name": "solc",
    "version": "0.6.12+commit.27d51765.Emscripten.clang"
  },
  "schemaVersion": "3.4.1",
  "updatedAt": "2021-09-10T04:14:29.209Z",
  "devdoc": {
    "kind": "dev",
    "methods": {},
    "version": 1
  },
  "userdoc": {
    "kind": "user",
    "methods": {
      "executeOperation(address[],uint256[],uint256[],address,bytes)": {
        "notice": "This function is called after your contract has received the flash loaned amount"
      }
    },
    "notice": "!!! Never keep funds permanently on your FlashLoanReceiverBase contract as they could be  exposed to a 'griefing' attack, where the stored funds are used by an attacker. !!!",
    "version": 1
  }
}